{
  "_format": "hh-sol-artifact-1",
  "contractName": "DegenToken",
  "sourceName": "contracts/DegenToken.sol",
  "abi": [
    {
      "inputs": [],
      "stateMutability": "nonpayable",
      "type": "constructor"
    },
    {
      "anonymous": false,
      "inputs": [
        {
          "indexed": true,
          "internalType": "address",
          "name": "owner",
          "type": "address"
        },
        {
          "indexed": true,
          "internalType": "address",
          "name": "spender",
          "type": "address"
        },
        {
          "indexed": false,
          "internalType": "uint256",
          "name": "value",
          "type": "uint256"
        }
      ],
      "name": "Approval",
      "type": "event"
    },
    {
      "anonymous": false,
      "inputs": [
        {
          "indexed": true,
          "internalType": "address",
          "name": "from",
          "type": "address"
        },
        {
          "indexed": true,
          "internalType": "address",
          "name": "to",
          "type": "address"
        },
        {
          "indexed": false,
          "internalType": "uint256",
          "name": "value",
          "type": "uint256"
        }
      ],
      "name": "Transfer",
      "type": "event"
    },
    {
      "inputs": [
        {
          "internalType": "address",
          "name": "owner",
          "type": "address"
        },
        {
          "internalType": "address",
          "name": "spender",
          "type": "address"
        }
      ],
      "name": "allowance",
      "outputs": [
        {
          "internalType": "uint256",
          "name": "",
          "type": "uint256"
        }
      ],
      "stateMutability": "view",
      "type": "function"
    },
    {
      "inputs": [
        {
          "internalType": "address",
          "name": "spender",
          "type": "address"
        },
        {
          "internalType": "uint256",
          "name": "amount",
          "type": "uint256"
        }
      ],
      "name": "approve",
      "outputs": [
        {
          "internalType": "bool",
          "name": "",
          "type": "bool"
        }
      ],
      "stateMutability": "nonpayable",
      "type": "function"
    },
    {
      "inputs": [
        {
          "internalType": "address",
          "name": "account",
          "type": "address"
        }
      ],
      "name": "balanceOf",
      "outputs": [
        {
          "internalType": "uint256",
          "name": "",
          "type": "uint256"
        }
      ],
      "stateMutability": "view",
      "type": "function"
    },
    {
      "inputs": [
        {
          "internalType": "uint256",
          "name": "_val",
          "type": "uint256"
        }
      ],
      "name": "burnFrom",
      "outputs": [],
      "stateMutability": "nonpayable",
      "type": "function"
    },
    {
      "inputs": [],
      "name": "decimals",
      "outputs": [
        {
          "internalType": "uint8",
          "name": "",
          "type": "uint8"
        }
      ],
      "stateMutability": "view",
      "type": "function"
    },
    {
      "inputs": [
        {
          "internalType": "address",
          "name": "spender",
          "type": "address"
        },
        {
          "internalType": "uint256",
          "name": "subtractedValue",
          "type": "uint256"
        }
      ],
      "name": "decreaseAllowance",
      "outputs": [
        {
          "internalType": "bool",
          "name": "",
          "type": "bool"
        }
      ],
      "stateMutability": "nonpayable",
      "type": "function"
    },
    {
      "inputs": [
        {
          "internalType": "address",
          "name": "_owner",
          "type": "address"
        }
      ],
      "name": "getowneditems",
      "outputs": [
        {
          "internalType": "string[]",
          "name": "",
          "type": "string[]"
        }
      ],
      "stateMutability": "view",
      "type": "function"
    },
    {
      "inputs": [
        {
          "internalType": "address",
          "name": "spender",
          "type": "address"
        },
        {
          "internalType": "uint256",
          "name": "addedValue",
          "type": "uint256"
        }
      ],
      "name": "increaseAllowance",
      "outputs": [
        {
          "internalType": "bool",
          "name": "",
          "type": "bool"
        }
      ],
      "stateMutability": "nonpayable",
      "type": "function"
    },
    {
      "inputs": [
        {
          "internalType": "address",
          "name": "_to",
          "type": "address"
        },
        {
          "internalType": "uint256",
          "name": "_val",
          "type": "uint256"
        }
      ],
      "name": "mintTo",
      "outputs": [],
      "stateMutability": "nonpayable",
      "type": "function"
    },
    {
      "inputs": [],
      "name": "name",
      "outputs": [
        {
          "internalType": "string",
          "name": "",
          "type": "string"
        }
      ],
      "stateMutability": "view",
      "type": "function"
    },
    {
      "inputs": [
        {
          "internalType": "uint256",
          "name": "_item",
          "type": "uint256"
        }
      ],
      "name": "redeem",
      "outputs": [],
      "stateMutability": "nonpayable",
      "type": "function"
    },
    {
      "inputs": [],
      "name": "symbol",
      "outputs": [
        {
          "internalType": "string",
          "name": "",
          "type": "string"
        }
      ],
      "stateMutability": "view",
      "type": "function"
    },
    {
      "inputs": [],
      "name": "totalSupply",
      "outputs": [
        {
          "internalType": "uint256",
          "name": "",
          "type": "uint256"
        }
      ],
      "stateMutability": "view",
      "type": "function"
    },
    {
      "inputs": [
        {
          "internalType": "address",
          "name": "to",
          "type": "address"
        },
        {
          "internalType": "uint256",
          "name": "amount",
          "type": "uint256"
        }
      ],
      "name": "transfer",
      "outputs": [
        {
          "internalType": "bool",
          "name": "",
          "type": "bool"
        }
      ],
      "stateMutability": "nonpayable",
      "type": "function"
    },
    {
      "inputs": [
        {
          "internalType": "address",
          "name": "from",
          "type": "address"
        },
        {
          "internalType": "address",
          "name": "to",
          "type": "address"
        },
        {
          "internalType": "uint256",
          "name": "amount",
          "type": "uint256"
        }
      ],
      "name": "transferFrom",
      "outputs": [
        {
          "internalType": "bool",
          "name": "",
          "type": "bool"
        }
      ],
      "stateMutability": "nonpayable",
      "type": "function"
    },
    {
      "inputs": [
        {
          "internalType": "address",
          "name": "_to",
          "type": "address"
        },
        {
          "internalType": "uint256",
          "name": "_val",
          "type": "uint256"
        }
      ],
      "name": "transferTo",
      "outputs": [],
      "stateMutability": "nonpayable",
      "type": "function"
    }
  ],
  "bytecode": "0x608060405260405180606001604052806040518060400160405280600681526020017f42756c6c6574000000000000000000000000000000000000000000000000000081525081526020016040518060400160405280600581526020017f4379636c6500000000000000000000000000000000000000000000000000000081525081526020016040518060400160405280600381526020017f546f7900000000000000000000000000000000000000000000000000000000008152508152506006906003620000d0929190620001f2565b50604051806060016040528060c860ff168152602001606460ff168152602001603260ff1681525060099060036200010a92919062000245565b503480156200011857600080fd5b506040518060400160405280600581526020017f446567656e0000000000000000000000000000000000000000000000000000008152506040518060400160405280600381526020017f44474e0000000000000000000000000000000000000000000000000000000000815250816003908162000196919062000596565b508060049081620001a8919062000596565b50505033600560006101000a81548173ffffffffffffffffffffffffffffffffffffffff021916908373ffffffffffffffffffffffffffffffffffffffff1602179055506200067d565b826003810192821562000232579160200282015b828111156200023157825182908162000220919062000596565b509160200191906001019062000206565b5b5090506200024191906200028f565b5090565b82600381019282156200027c579160200282015b828111156200027b578251829060ff1690559160200191906001019062000259565b5b5090506200028b9190620002b7565b5090565b5b80821115620002b35760008181620002a99190620002d6565b5060010162000290565b5090565b5b80821115620002d2576000816000905550600101620002b8565b5090565b508054620002e49062000385565b6000825580601f10620002f8575062000319565b601f016020900490600052602060002090810190620003189190620002b7565b5b50565b600081519050919050565b7f4e487b7100000000000000000000000000000000000000000000000000000000600052604160045260246000fd5b7f4e487b7100000000000000000000000000000000000000000000000000000000600052602260045260246000fd5b600060028204905060018216806200039e57607f821691505b602082108103620003b457620003b362000356565b5b50919050565b60008190508160005260206000209050919050565b60006020601f8301049050919050565b600082821b905092915050565b6000600883026200041e7fffffffffffffffffffffffffffffffffffffffffffffffffffffffffffffffff82620003df565b6200042a8683620003df565b95508019841693508086168417925050509392505050565b6000819050919050565b6000819050919050565b600062000477620004716200046b8462000442565b6200044c565b62000442565b9050919050565b6000819050919050565b620004938362000456565b620004ab620004a2826200047e565b848454620003ec565b825550505050565b600090565b620004c2620004b3565b620004cf81848462000488565b505050565b5b81811015620004f757620004eb600082620004b8565b600181019050620004d5565b5050565b601f82111562000546576200051081620003ba565b6200051b84620003cf565b810160208510156200052b578190505b620005436200053a85620003cf565b830182620004d4565b50505b505050565b600082821c905092915050565b60006200056b600019846008026200054b565b1980831691505092915050565b600062000586838362000558565b9150826002028217905092915050565b620005a1826200031c565b67ffffffffffffffff811115620005bd57620005bc62000327565b5b620005c9825462000385565b620005d6828285620004fb565b600060209050601f8311600181146200060e5760008415620005f9578287015190505b62000605858262000578565b86555062000675565b601f1984166200061e86620003ba565b60005b82811015620006485784890151825560018201915060208501945060208101905062000621565b8683101562000668578489015162000664601f89168262000558565b8355505b6001600288020188555050505b505050505050565b612083806200068d6000396000f3fe608060405234801561001057600080fd5b50600436106101005760003560e01c80633950935111610097578063a457c2d711610066578063a457c2d7146102c1578063a9059cbb146102f1578063db006a7514610321578063dd62ed3e1461033d57610100565b80633950935114610227578063449a52f81461025757806370a082311461027357806395d89b41146102a357610100565b8063274ff7ce116100d3578063274ff7ce146101a15780632b20cc8e146101bd5780632ccb1b30146101ed578063313ce5671461020957610100565b806306fdde0314610105578063095ea7b31461012357806318160ddd1461015357806323b872dd14610171575b600080fd5b61010d61036d565b60405161011a9190611226565b60405180910390f35b61013d600480360381019061013891906112e1565b6103ff565b60405161014a919061133c565b60405180910390f35b61015b610422565b6040516101689190611366565b60405180910390f35b61018b60048036038101906101869190611381565b61042c565b604051610198919061133c565b60405180910390f35b6101bb60048036038101906101b691906113d4565b61045b565b005b6101d760048036038101906101d29190611401565b610468565b6040516101e4919061153a565b60405180910390f35b610207600480360381019061020291906112e1565b610580565b005b61021161058f565b60405161021e9190611578565b60405180910390f35b610241600480360381019061023c91906112e1565b610598565b60405161024e919061133c565b60405180910390f35b610271600480360381019061026c91906112e1565b6105cf565b005b61028d60048036038101906102889190611401565b61066d565b60405161029a9190611366565b60405180910390f35b6102ab6106b5565b6040516102b89190611226565b60405180910390f35b6102db60048036038101906102d691906112e1565b610747565b6040516102e8919061133c565b60405180910390f35b61030b600480360381019061030691906112e1565b6107be565b604051610318919061133c565b60405180910390f35b61033b600480360381019061033691906113d4565b6107e1565b005b61035760048036038101906103529190611593565b61090f565b6040516103649190611366565b60405180910390f35b60606003805461037c90611602565b80601f01602080910402602001604051908101604052809291908181526020018280546103a890611602565b80156103f55780601f106103ca576101008083540402835291602001916103f5565b820191906000526020600020905b8154815290600101906020018083116103d857829003601f168201915b5050505050905090565b60008061040a610996565b905061041781858561099e565b600191505092915050565b6000600254905090565b600080610437610996565b9050610444858285610b67565b61044f858585610bf3565b60019150509392505050565b6104653382610e69565b50565b6060600c60008373ffffffffffffffffffffffffffffffffffffffff1673ffffffffffffffffffffffffffffffffffffffff168152602001908152602001600020805480602002602001604051908101604052809291908181526020016000905b828210156105755783829060005260206000200180546104e890611602565b80601f016020809104026020016040519081016040528092919081815260200182805461051490611602565b80156105615780601f1061053657610100808354040283529160200191610561565b820191906000526020600020905b81548152906001019060200180831161054457829003601f168201915b5050505050815260200190600101906104c9565b505050509050919050565b61058b338383610bf3565b5050565b60006012905090565b6000806105a3610996565b90506105c48185856105b5858961090f565b6105bf9190611662565b61099e565b600191505092915050565b3373ffffffffffffffffffffffffffffffffffffffff16600560009054906101000a900473ffffffffffffffffffffffffffffffffffffffff1673ffffffffffffffffffffffffffffffffffffffff161461065f576040517f08c379a000000000000000000000000000000000000000000000000000000000815260040161065690611708565b60405180910390fd5b6106698282611036565b5050565b60008060008373ffffffffffffffffffffffffffffffffffffffff1673ffffffffffffffffffffffffffffffffffffffff168152602001908152602001600020549050919050565b6060600480546106c490611602565b80601f01602080910402602001604051908101604052809291908181526020018280546106f090611602565b801561073d5780601f106107125761010080835404028352916020019161073d565b820191906000526020600020905b81548152906001019060200180831161072057829003601f168201915b5050505050905090565b600080610752610996565b90506000610760828661090f565b9050838110156107a5576040517f08c379a000000000000000000000000000000000000000000000000000000000815260040161079c9061179a565b60405180910390fd5b6107b2828686840361099e565b60019250505092915050565b6000806107c9610996565b90506107d6818585610bf3565b600191505092915050565b60036001826107f091906117ba565b10801561080a5750600060018261080791906117ba565b10155b610849576040517f08c379a00000000000000000000000000000000000000000000000000000000081526004016108409061183a565b60405180910390fd5b6000600960018361085a91906117ba565b6003811061086b5761086a61185a565b5b015490506108793382610e69565b600c60003373ffffffffffffffffffffffffffffffffffffffff1673ffffffffffffffffffffffffffffffffffffffff16815260200190815260200160002060066001846108c791906117ba565b600381106108d8576108d761185a565b5b0190806001815401808255809150506001900390600052602060002001600090919091909150908161090a9190611a8f565b505050565b6000600160008473ffffffffffffffffffffffffffffffffffffffff1673ffffffffffffffffffffffffffffffffffffffff16815260200190815260200160002060008373ffffffffffffffffffffffffffffffffffffffff1673ffffffffffffffffffffffffffffffffffffffff16815260200190815260200160002054905092915050565b600033905090565b600073ffffffffffffffffffffffffffffffffffffffff168373ffffffffffffffffffffffffffffffffffffffff1603610a0d576040517f08c379a0000000000000000000000000000000000000000000000000000000008152600401610a0490611be9565b60405180910390fd5b600073ffffffffffffffffffffffffffffffffffffffff168273ffffffffffffffffffffffffffffffffffffffff1603610a7c576040517f08c379a0000000000000000000000000000000000000000000000000000000008152600401610a7390611c7b565b60405180910390fd5b80600160008573ffffffffffffffffffffffffffffffffffffffff1673ffffffffffffffffffffffffffffffffffffffff16815260200190815260200160002060008473ffffffffffffffffffffffffffffffffffffffff1673ffffffffffffffffffffffffffffffffffffffff168152602001908152602001600020819055508173ffffffffffffffffffffffffffffffffffffffff168373ffffffffffffffffffffffffffffffffffffffff167f8c5be1e5ebec7d5bd14f71427d1e84f3dd0314c0f7b2291e5b200ac8c7c3b92583604051610b5a9190611366565b60405180910390a3505050565b6000610b73848461090f565b90507fffffffffffffffffffffffffffffffffffffffffffffffffffffffffffffffff8114610bed5781811015610bdf576040517f08c379a0000000000000000000000000000000000000000000000000000000008152600401610bd690611ce7565b60405180910390fd5b610bec848484840361099e565b5b50505050565b600073ffffffffffffffffffffffffffffffffffffffff168373ffffffffffffffffffffffffffffffffffffffff1603610c62576040517f08c379a0000000000000000000000000000000000000000000000000000000008152600401610c5990611d79565b60405180910390fd5b600073ffffffffffffffffffffffffffffffffffffffff168273ffffffffffffffffffffffffffffffffffffffff1603610cd1576040517f08c379a0000000000000000000000000000000000000000000000000000000008152600401610cc890611e0b565b60405180910390fd5b610cdc83838361118c565b60008060008573ffffffffffffffffffffffffffffffffffffffff1673ffffffffffffffffffffffffffffffffffffffff16815260200190815260200160002054905081811015610d62576040517f08c379a0000000000000000000000000000000000000000000000000000000008152600401610d5990611e9d565b60405180910390fd5b8181036000808673ffffffffffffffffffffffffffffffffffffffff1673ffffffffffffffffffffffffffffffffffffffff16815260200190815260200160002081905550816000808573ffffffffffffffffffffffffffffffffffffffff1673ffffffffffffffffffffffffffffffffffffffff168152602001908152602001600020600082825401925050819055508273ffffffffffffffffffffffffffffffffffffffff168473ffffffffffffffffffffffffffffffffffffffff167fddf252ad1be2c89b69c2b068fc378daa952ba7f163c4a11628f55a4df523b3ef84604051610e509190611366565b60405180910390a3610e63848484611191565b50505050565b600073ffffffffffffffffffffffffffffffffffffffff168273ffffffffffffffffffffffffffffffffffffffff1603610ed8576040517f08c379a0000000000000000000000000000000000000000000000000000000008152600401610ecf90611f2f565b60405180910390fd5b610ee48260008361118c565b60008060008473ffffffffffffffffffffffffffffffffffffffff1673ffffffffffffffffffffffffffffffffffffffff16815260200190815260200160002054905081811015610f6a576040517f08c379a0000000000000000000000000000000000000000000000000000000008152600401610f6190611fc1565b60405180910390fd5b8181036000808573ffffffffffffffffffffffffffffffffffffffff1673ffffffffffffffffffffffffffffffffffffffff1681526020019081526020016000208190555081600260008282540392505081905550600073ffffffffffffffffffffffffffffffffffffffff168373ffffffffffffffffffffffffffffffffffffffff167fddf252ad1be2c89b69c2b068fc378daa952ba7f163c4a11628f55a4df523b3ef8460405161101d9190611366565b60405180910390a361103183600084611191565b505050565b600073ffffffffffffffffffffffffffffffffffffffff168273ffffffffffffffffffffffffffffffffffffffff16036110a5576040517f08c379a000000000000000000000000000000000000000000000000000000000815260040161109c9061202d565b60405180910390fd5b6110b16000838361118c565b80600260008282546110c39190611662565b92505081905550806000808473ffffffffffffffffffffffffffffffffffffffff1673ffffffffffffffffffffffffffffffffffffffff168152602001908152602001600020600082825401925050819055508173ffffffffffffffffffffffffffffffffffffffff16600073ffffffffffffffffffffffffffffffffffffffff167fddf252ad1be2c89b69c2b068fc378daa952ba7f163c4a11628f55a4df523b3ef836040516111749190611366565b60405180910390a361118860008383611191565b5050565b505050565b505050565b600081519050919050565b600082825260208201905092915050565b60005b838110156111d05780820151818401526020810190506111b5565b60008484015250505050565b6000601f19601f8301169050919050565b60006111f882611196565b61120281856111a1565b93506112128185602086016111b2565b61121b816111dc565b840191505092915050565b6000602082019050818103600083015261124081846111ed565b905092915050565b600080fd5b600073ffffffffffffffffffffffffffffffffffffffff82169050919050565b60006112788261124d565b9050919050565b6112888161126d565b811461129357600080fd5b50565b6000813590506112a58161127f565b92915050565b6000819050919050565b6112be816112ab565b81146112c957600080fd5b50565b6000813590506112db816112b5565b92915050565b600080604083850312156112f8576112f7611248565b5b600061130685828601611296565b9250506020611317858286016112cc565b9150509250929050565b60008115159050919050565b61133681611321565b82525050565b6000602082019050611351600083018461132d565b92915050565b611360816112ab565b82525050565b600060208201905061137b6000830184611357565b92915050565b60008060006060848603121561139a57611399611248565b5b60006113a886828701611296565b93505060206113b986828701611296565b92505060406113ca868287016112cc565b9150509250925092565b6000602082840312156113ea576113e9611248565b5b60006113f8848285016112cc565b91505092915050565b60006020828403121561141757611416611248565b5b600061142584828501611296565b91505092915050565b600081519050919050565b600082825260208201905092915050565b6000819050602082019050919050565b600082825260208201905092915050565b600061147682611196565b611480818561145a565b93506114908185602086016111b2565b611499816111dc565b840191505092915050565b60006114b0838361146b565b905092915050565b6000602082019050919050565b60006114d08261142e565b6114da8185611439565b9350836020820285016114ec8561144a565b8060005b85811015611528578484038952815161150985826114a4565b9450611514836114b8565b925060208a019950506001810190506114f0565b50829750879550505050505092915050565b6000602082019050818103600083015261155481846114c5565b905092915050565b600060ff82169050919050565b6115728161155c565b82525050565b600060208201905061158d6000830184611569565b92915050565b600080604083850312156115aa576115a9611248565b5b60006115b885828601611296565b92505060206115c985828601611296565b9150509250929050565b7f4e487b7100000000000000000000000000000000000000000000000000000000600052602260045260246000fd5b6000600282049050600182168061161a57607f821691505b60208210810361162d5761162c6115d3565b5b50919050565b7f4e487b7100000000000000000000000000000000000000000000000000000000600052601160045260246000fd5b600061166d826112ab565b9150611678836112ab565b92508282019050808211156116905761168f611633565b5b92915050565b7f4f6e6c7920636f6e7472616374206f776e65722068617320746865206163636560008201527f7373000000000000000000000000000000000000000000000000000000000000602082015250565b60006116f26022836111a1565b91506116fd82611696565b604082019050919050565b60006020820190508181036000830152611721816116e5565b9050919050565b7f45524332303a2064656372656173656420616c6c6f77616e63652062656c6f7760008201527f207a65726f000000000000000000000000000000000000000000000000000000602082015250565b60006117846025836111a1565b915061178f82611728565b604082019050919050565b600060208201905081810360008301526117b381611777565b9050919050565b60006117c5826112ab565b91506117d0836112ab565b92508282039050818111156117e8576117e7611633565b5b92915050565b7f4974656d20646f6573206e6f7420657869737400000000000000000000000000600082015250565b60006118246013836111a1565b915061182f826117ee565b602082019050919050565b6000602082019050818103600083015261185381611817565b9050919050565b7f4e487b7100000000000000000000000000000000000000000000000000000000600052603260045260246000fd5b60008154905061189881611602565b9050919050565b7f4e487b7100000000000000000000000000000000000000000000000000000000600052604160045260246000fd5b60008190508160005260206000209050919050565b60008190508160005260206000209050919050565b60006020601f8301049050919050565b600082821b905092915050565b6000600883026119457fffffffffffffffffffffffffffffffffffffffffffffffffffffffffffffffff82611908565b61194f8683611908565b95508019841693508086168417925050509392505050565b6000819050919050565b600061198c611987611982846112ab565b611967565b6112ab565b9050919050565b6000819050919050565b6119a683611971565b6119ba6119b282611993565b848454611915565b825550505050565b600090565b6119cf6119c2565b6119da81848461199d565b505050565b5b818110156119fe576119f36000826119c7565b6001810190506119e0565b5050565b601f821115611a4357611a14816118ce565b611a1d846118f8565b81016020851015611a2c578190505b611a40611a38856118f8565b8301826119df565b50505b505050565b600082821c905092915050565b6000611a6660001984600802611a48565b1980831691505092915050565b6000611a7f8383611a55565b9150826002028217905092915050565b818103611a9d575050611b75565b611aa682611889565b67ffffffffffffffff811115611abf57611abe61189f565b5b611ac98254611602565b611ad4828285611a02565b6000601f831160018114611b035760008415611af1578287015490505b611afb8582611a73565b865550611b6e565b601f198416611b11876118e3565b9650611b1c866118ce565b60005b82811015611b4457848901548255600182019150600185019450602081019050611b1f565b86831015611b615784890154611b5d601f891682611a55565b8355505b6001600288020188555050505b5050505050505b565b7f45524332303a20617070726f76652066726f6d20746865207a65726f2061646460008201527f7265737300000000000000000000000000000000000000000000000000000000602082015250565b6000611bd36024836111a1565b9150611bde82611b77565b604082019050919050565b60006020820190508181036000830152611c0281611bc6565b9050919050565b7f45524332303a20617070726f766520746f20746865207a65726f20616464726560008201527f7373000000000000000000000000000000000000000000000000000000000000602082015250565b6000611c656022836111a1565b9150611c7082611c09565b604082019050919050565b60006020820190508181036000830152611c9481611c58565b9050919050565b7f45524332303a20696e73756666696369656e7420616c6c6f77616e6365000000600082015250565b6000611cd1601d836111a1565b9150611cdc82611c9b565b602082019050919050565b60006020820190508181036000830152611d0081611cc4565b9050919050565b7f45524332303a207472616e736665722066726f6d20746865207a65726f20616460008201527f6472657373000000000000000000000000000000000000000000000000000000602082015250565b6000611d636025836111a1565b9150611d6e82611d07565b604082019050919050565b60006020820190508181036000830152611d9281611d56565b9050919050565b7f45524332303a207472616e7366657220746f20746865207a65726f206164647260008201527f6573730000000000000000000000000000000000000000000000000000000000602082015250565b6000611df56023836111a1565b9150611e0082611d99565b604082019050919050565b60006020820190508181036000830152611e2481611de8565b9050919050565b7f45524332303a207472616e7366657220616d6f756e742065786365656473206260008201527f616c616e63650000000000000000000000000000000000000000000000000000602082015250565b6000611e876026836111a1565b9150611e9282611e2b565b604082019050919050565b60006020820190508181036000830152611eb681611e7a565b9050919050565b7f45524332303a206275726e2066726f6d20746865207a65726f2061646472657360008201527f7300000000000000000000000000000000000000000000000000000000000000602082015250565b6000611f196021836111a1565b9150611f2482611ebd565b604082019050919050565b60006020820190508181036000830152611f4881611f0c565b9050919050565b7f45524332303a206275726e20616d6f756e7420657863656564732062616c616e60008201527f6365000000000000000000000000000000000000000000000000000000000000602082015250565b6000611fab6022836111a1565b9150611fb682611f4f565b604082019050919050565b60006020820190508181036000830152611fda81611f9e565b9050919050565b7f45524332303a206d696e7420746f20746865207a65726f206164647265737300600082015250565b6000612017601f836111a1565b915061202282611fe1565b602082019050919050565b600060208201905081810360008301526120468161200a565b905091905056fea264697066735822122005cd8314d772ed1c6e4d3d250c9143534ef0bb49e399011efb82bc07eb07194464736f6c63430008120033",
  "linkReferences": {},
  "deployedLinkReferences": {}
}